{
  "contractName": "HighOrLow",
  "abi": [
    {
      "inputs": [
        {
          "internalType": "string",
          "name": "name",
          "type": "string"
        },
        {
          "internalType": "int256",
          "name": "priceTarget",
          "type": "int256"
        },
        {
          "internalType": "uint256",
          "name": "timeDeadline",
          "type": "uint256"
        },
        {
          "internalType": "uint256",
          "name": "betMinimum",
          "type": "uint256"
        },
        {
          "internalType": "address",
          "name": "feedAddress",
          "type": "address"
        }
      ],
      "stateMutability": "nonpayable",
      "type": "constructor"
    },
    {
      "anonymous": false,
      "inputs": [
        {
          "indexed": true,
          "internalType": "address",
          "name": "account",
          "type": "address"
        },
        {
          "indexed": true,
          "internalType": "address",
          "name": "operator",
          "type": "address"
        },
        {
          "indexed": false,
          "internalType": "bool",
          "name": "approved",
          "type": "bool"
        }
      ],
      "name": "ApprovalForAll",
      "type": "event"
    },
    {
      "anonymous": false,
      "inputs": [
        {
          "indexed": false,
          "internalType": "address",
          "name": "punter",
          "type": "address"
        },
        {
          "indexed": false,
          "internalType": "uint256",
          "name": "outcome",
          "type": "uint256"
        },
        {
          "indexed": false,
          "internalType": "uint256",
          "name": "ethAmount",
          "type": "uint256"
        },
        {
          "indexed": false,
          "internalType": "uint256",
          "name": "tokensMinted",
          "type": "uint256"
        }
      ],
      "name": "BetPlaced",
      "type": "event"
    },
    {
      "anonymous": false,
      "inputs": [
        {
          "indexed": false,
          "internalType": "uint256",
          "name": "outcome",
          "type": "uint256"
        }
      ],
      "name": "ResultConcluded",
      "type": "event"
    },
    {
      "anonymous": false,
      "inputs": [
        {
          "indexed": false,
          "internalType": "address",
          "name": "punter",
          "type": "address"
        },
        {
          "indexed": false,
          "internalType": "uint256",
          "name": "ethAmount",
          "type": "uint256"
        }
      ],
      "name": "RewardClaimed",
      "type": "event"
    },
    {
      "anonymous": false,
      "inputs": [
        {
          "indexed": true,
          "internalType": "address",
          "name": "operator",
          "type": "address"
        },
        {
          "indexed": true,
          "internalType": "address",
          "name": "from",
          "type": "address"
        },
        {
          "indexed": true,
          "internalType": "address",
          "name": "to",
          "type": "address"
        },
        {
          "indexed": false,
          "internalType": "uint256[]",
          "name": "ids",
          "type": "uint256[]"
        },
        {
          "indexed": false,
          "internalType": "uint256[]",
          "name": "values",
          "type": "uint256[]"
        }
      ],
      "name": "TransferBatch",
      "type": "event"
    },
    {
      "anonymous": false,
      "inputs": [
        {
          "indexed": true,
          "internalType": "address",
          "name": "operator",
          "type": "address"
        },
        {
          "indexed": true,
          "internalType": "address",
          "name": "from",
          "type": "address"
        },
        {
          "indexed": true,
          "internalType": "address",
          "name": "to",
          "type": "address"
        },
        {
          "indexed": false,
          "internalType": "uint256",
          "name": "id",
          "type": "uint256"
        },
        {
          "indexed": false,
          "internalType": "uint256",
          "name": "value",
          "type": "uint256"
        }
      ],
      "name": "TransferSingle",
      "type": "event"
    },
    {
      "anonymous": false,
      "inputs": [
        {
          "indexed": false,
          "internalType": "string",
          "name": "value",
          "type": "string"
        },
        {
          "indexed": true,
          "internalType": "uint256",
          "name": "id",
          "type": "uint256"
        }
      ],
      "name": "URI",
      "type": "event"
    },
    {
      "inputs": [],
      "name": "HIGH",
      "outputs": [
        {
          "internalType": "uint256",
          "name": "",
          "type": "uint256"
        }
      ],
      "stateMutability": "view",
      "type": "function",
      "constant": true
    },
    {
      "inputs": [],
      "name": "LOW",
      "outputs": [
        {
          "internalType": "uint256",
          "name": "",
          "type": "uint256"
        }
      ],
      "stateMutability": "view",
      "type": "function",
      "constant": true
    },
    {
      "inputs": [
        {
          "internalType": "address",
          "name": "account",
          "type": "address"
        },
        {
          "internalType": "uint256",
          "name": "id",
          "type": "uint256"
        }
      ],
      "name": "balanceOf",
      "outputs": [
        {
          "internalType": "uint256",
          "name": "",
          "type": "uint256"
        }
      ],
      "stateMutability": "view",
      "type": "function",
      "constant": true
    },
    {
      "inputs": [
        {
          "internalType": "address[]",
          "name": "accounts",
          "type": "address[]"
        },
        {
          "internalType": "uint256[]",
          "name": "ids",
          "type": "uint256[]"
        }
      ],
      "name": "balanceOfBatch",
      "outputs": [
        {
          "internalType": "uint256[]",
          "name": "",
          "type": "uint256[]"
        }
      ],
      "stateMutability": "view",
      "type": "function",
      "constant": true
    },
    {
      "inputs": [],
      "name": "deadline",
      "outputs": [
        {
          "internalType": "uint256",
          "name": "",
          "type": "uint256"
        }
      ],
      "stateMutability": "view",
      "type": "function",
      "constant": true
    },
    {
      "inputs": [],
      "name": "feed",
      "outputs": [
        {
          "internalType": "address",
          "name": "",
          "type": "address"
        }
      ],
      "stateMutability": "view",
      "type": "function",
      "constant": true
    },
    {
      "inputs": [
        {
          "internalType": "address",
          "name": "account",
          "type": "address"
        },
        {
          "internalType": "address",
          "name": "operator",
          "type": "address"
        }
      ],
      "name": "isApprovedForAll",
      "outputs": [
        {
          "internalType": "bool",
          "name": "",
          "type": "bool"
        }
      ],
      "stateMutability": "view",
      "type": "function",
      "constant": true
    },
    {
      "inputs": [],
      "name": "minimumBet",
      "outputs": [
        {
          "internalType": "uint256",
          "name": "",
          "type": "uint256"
        }
      ],
      "stateMutability": "view",
      "type": "function",
      "constant": true
    },
    {
      "inputs": [],
      "name": "result",
      "outputs": [
        {
          "internalType": "uint256",
          "name": "",
          "type": "uint256"
        }
      ],
      "stateMutability": "view",
      "type": "function",
      "constant": true
    },
    {
      "inputs": [
        {
          "internalType": "address",
          "name": "from",
          "type": "address"
        },
        {
          "internalType": "address",
          "name": "to",
          "type": "address"
        },
        {
          "internalType": "uint256[]",
          "name": "ids",
          "type": "uint256[]"
        },
        {
          "internalType": "uint256[]",
          "name": "amounts",
          "type": "uint256[]"
        },
        {
          "internalType": "bytes",
          "name": "data",
          "type": "bytes"
        }
      ],
      "name": "safeBatchTransferFrom",
      "outputs": [],
      "stateMutability": "nonpayable",
      "type": "function"
    },
    {
      "inputs": [
        {
          "internalType": "address",
          "name": "from",
          "type": "address"
        },
        {
          "internalType": "address",
          "name": "to",
          "type": "address"
        },
        {
          "internalType": "uint256",
          "name": "id",
          "type": "uint256"
        },
        {
          "internalType": "uint256",
          "name": "amount",
          "type": "uint256"
        },
        {
          "internalType": "bytes",
          "name": "data",
          "type": "bytes"
        }
      ],
      "name": "safeTransferFrom",
      "outputs": [],
      "stateMutability": "nonpayable",
      "type": "function"
    },
    {
      "inputs": [
        {
          "internalType": "address",
          "name": "operator",
          "type": "address"
        },
        {
          "internalType": "bool",
          "name": "approved",
          "type": "bool"
        }
      ],
      "name": "setApprovalForAll",
      "outputs": [],
      "stateMutability": "nonpayable",
      "type": "function"
    },
    {
      "inputs": [
        {
          "internalType": "uint256",
          "name": "",
          "type": "uint256"
        }
      ],
      "name": "supplies",
      "outputs": [
        {
          "internalType": "uint256",
          "name": "",
          "type": "uint256"
        }
      ],
      "stateMutability": "view",
      "type": "function",
      "constant": true
    },
    {
      "inputs": [
        {
          "internalType": "bytes4",
          "name": "interfaceId",
          "type": "bytes4"
        }
      ],
      "name": "supportsInterface",
      "outputs": [
        {
          "internalType": "bool",
          "name": "",
          "type": "bool"
        }
      ],
      "stateMutability": "view",
      "type": "function",
      "constant": true
    },
    {
      "inputs": [],
      "name": "target",
      "outputs": [
        {
          "internalType": "int256",
          "name": "",
          "type": "int256"
        }
      ],
      "stateMutability": "view",
      "type": "function",
      "constant": true
    },
    {
      "inputs": [
        {
          "internalType": "uint256",
          "name": "",
          "type": "uint256"
        }
      ],
      "name": "uri",
      "outputs": [
        {
          "internalType": "string",
          "name": "",
          "type": "string"
        }
      ],
      "stateMutability": "view",
      "type": "function",
      "constant": true
    },
    {
      "inputs": [
        {
          "internalType": "uint256",
          "name": "outcome",
          "type": "uint256"
        }
      ],
      "name": "bet",
      "outputs": [
        {
          "internalType": "uint256",
          "name": "",
          "type": "uint256"
        }
      ],
      "stateMutability": "payable",
      "type": "function",
      "payable": true
    },
    {
      "inputs": [],
      "name": "checkResult",
      "outputs": [
        {
          "internalType": "int256",
          "name": "",
          "type": "int256"
        },
        {
          "internalType": "int256",
          "name": "",
          "type": "int256"
        }
      ],
      "stateMutability": "view",
      "type": "function",
      "constant": true
    },
    {
      "inputs": [],
      "name": "verifyResult",
      "outputs": [
        {
          "internalType": "uint256",
          "name": "",
          "type": "uint256"
        }
      ],
      "stateMutability": "nonpayable",
      "type": "function"
    },
    {
      "inputs": [],
      "name": "claimReward",
      "outputs": [
        {
          "internalType": "uint256",
          "name": "",
          "type": "uint256"
        }
      ],
      "stateMutability": "nonpayable",
      "type": "function"
    },
    {
      "inputs": [
        {
          "internalType": "uint256",
          "name": "outcome",
          "type": "uint256"
        }
      ],
      "name": "priceOf",
      "outputs": [
        {
          "internalType": "uint256",
          "name": "",
          "type": "uint256"
        }
      ],
      "stateMutability": "view",
      "type": "function",
      "constant": true
    },
    {
      "inputs": [],
      "name": "totalSupply",
      "outputs": [
        {
          "internalType": "uint256",
          "name": "",
          "type": "uint256"
        }
      ],
      "stateMutability": "view",
      "type": "function",
      "constant": true
    }
  ],
  "bytecode": "0x60806040523480156200001157600080fd5b5060405162002be938038062002be9833981810160405260a08110156200003757600080fd5b81019080805160405193929190846401000000008211156200005857600080fd5b9083019060208201858111156200006e57600080fd5b82516401000000008111828201881017156200008957600080fd5b82525081516020918201929091019080838360005b83811015620000b85781810151838201526020016200009e565b50505050905090810190601f168015620000e65780820380516001836020036101000a031916815260200191505b5060409081526020820151908201516060830151608090930151919450925084620001216301ffc9a760e01b6001600160e01b036200026016565b62000135816001600160e01b03620002e516565b62000150636cdb3d1360e11b6001600160e01b036200026016565b6200016b6303a24d0760e21b6001600160e01b036200026016565b50600684905560078390556005829055600880546001600160a01b0319166001600160a01b038316179055604080516020810190915260008152620001bf903390600190670de0b6b3a764000090620002fe565b6001600090815260046020908152670de0b6b3a76400007fabd6e7cb50984ff9c2f3e18a2660c3353dadf4e3291deeb275dae2cd1e44fe0581905560408051928301905291815262000220913391600291906001600160e01b03620002fe16565b505060026000525050600460205250670de0b6b3a76400007f91da3fd0782e51c6b3986e9e672fd566868e71f3dbc2d6c2cd6fbb3e361af2a755620008e1565b6001600160e01b03198082161415620002c0576040805162461bcd60e51b815260206004820152601c60248201527f4552433136353a20696e76616c696420696e7465726661636520696400000000604482015290519081900360640190fd5b6001600160e01b0319166000908152602081905260409020805460ff19166001179055565b8051620002fa90600390602084019062000786565b5050565b6001600160a01b038416620003455760405162461bcd60e51b815260040180806020018281038252602181526020018062002bc86021913960400191505060405180910390fd5b60006200035a6001600160e01b036200045a16565b90506200039c8160008762000378886001600160e01b036200045f16565b6200038c886001600160e01b036200045f16565b876001600160e01b03620004a416565b60008481526001602090815260408083206001600160a01b0389168452825290912054620003d59185906200160f620004ac821b17901c565b60008581526001602090815260408083206001600160a01b03808b16808652918452828520959095558151898152928301889052815190948616927fc3d58168c5ae7397731d063d5bbf3d657854427343f4c083240f7aacaa2d0f6292908290030190a462000453816000878787876001600160e01b036200050e16565b5050505050565b335b90565b6040805160018082528183019092526060918291906020808301908036833701905050905082816000815181106200049357fe5b602090810291909101015292915050565b505050505050565b60008282018381101562000507576040805162461bcd60e51b815260206004820152601b60248201527f536166654d6174683a206164646974696f6e206f766572666c6f770000000000604482015290519081900360640190fd5b9392505050565b6200052d846001600160a01b03166200078060201b620016701760201c565b15620004a457836001600160a01b031663f23a6e6187878686866040518663ffffffff1660e01b815260040180866001600160a01b03166001600160a01b03168152602001856001600160a01b03166001600160a01b0316815260200184815260200183815260200180602001828103825283818151815260200191508051906020019080838360005b83811015620005d1578181015183820152602001620005b7565b50505050905090810190601f168015620005ff5780820380516001836020036101000a031916815260200191505b509650505050505050602060405180830381600087803b1580156200062357600080fd5b505af19250505080156200064a57506040513d60208110156200064557600080fd5b505160015b6200072657620006596200082e565b80620006665750620006ee565b8060405162461bcd60e51b81526004018080602001828103825283818151815260200191508051906020019080838360005b83811015620006b257818101518382015260200162000698565b50505050905090810190601f168015620006e05780820380516001836020036101000a031916815260200191505b509250505060405180910390fd5b60405162461bcd60e51b815260040180806020018281038252603481526020018062002b6c6034913960400191505060405180910390fd5b6001600160e01b0319811663f23a6e6160e01b14620007775760405162461bcd60e51b815260040180806020018281038252602881526020018062002ba06028913960400191505060405180910390fd5b50505050505050565b3b151590565b828054600181600116156101000203166002900490600052602060002090601f016020900481019282601f10620007c957805160ff1916838001178555620007f9565b82800160010185558215620007f9579182015b82811115620007f9578251825591602001919060010190620007dc565b50620008079291506200080b565b5090565b6200045c91905b8082111562000807576000815560010162000812565b60e01c90565b600060443d101562000840576200045c565b600481823e6308c379a062000856825162000828565b1462000862576200045c565b6040513d600319016004823e80513d6001600160401b0380831160248401831017156200089357505050506200045c565b82840191508151925080831115620008af57505050506200045c565b503d83016020838301011115620008c9575050506200045c565b601f91909101601f1916810160200160405291505090565b61227b80620008f16000396000f3fe6080604052600436106101345760003560e01c80637365870b116100ab578063b88a802f1161006f578063b88a802f1461071a578063b9186d7d1461072f578063c38a8afd14610759578063d4b839921461076e578063e985e9c514610783578063f242432a146107be57610134565b80637365870b1461066a5780639f17b0f914610687578063a21d942f1461069c578063a22cb465146106ca578063b73974a11461070557610134565b806326f1a1fd116100fd57806326f1a1fd1461029557806329dcb0cf146102bf5780632eb2c2d6146102d457806337a7b7d8146104a45780634e1273f4146104d5578063653721471461065557610134565b8062fdd58e1461013957806301ffc9a7146101845780630e514c72146101cc5780630e89341c146101e157806318160ddd14610280575b600080fd5b34801561014557600080fd5b506101726004803603604081101561015c57600080fd5b506001600160a01b038135169060200135610894565b60408051918252519081900360200190f35b34801561019057600080fd5b506101b8600480360360208110156101a757600080fd5b50356001600160e01b031916610906565b604080519115158252519081900360200190f35b3480156101d857600080fd5b50610172610925565b3480156101ed57600080fd5b5061020b6004803603602081101561020457600080fd5b5035610a63565b6040805160208082528351818301528351919283929083019185019080838360005b8381101561024557818101518382015260200161022d565b50505050905090810190601f1680156102725780820380516001836020036101000a031916815260200191505b509250505060405180910390f35b34801561028c57600080fd5b50610172610afb565b3480156102a157600080fd5b50610172600480360360208110156102b857600080fd5b5035610b62565b3480156102cb57600080fd5b50610172610b74565b3480156102e057600080fd5b506104a2600480360360a08110156102f757600080fd5b6001600160a01b038235811692602081013590911691810190606081016040820135600160201b81111561032a57600080fd5b82018360208201111561033c57600080fd5b803590602001918460208302840111600160201b8311171561035d57600080fd5b9190808060200260200160405190810160405280939291908181526020018383602002808284376000920191909152509295949360208101935035915050600160201b8111156103ac57600080fd5b8201836020820111156103be57600080fd5b803590602001918460208302840111600160201b831117156103df57600080fd5b9190808060200260200160405190810160405280939291908181526020018383602002808284376000920191909152509295949360208101935035915050600160201b81111561042e57600080fd5b82018360208201111561044057600080fd5b803590602001918460018302840111600160201b8311171561046157600080fd5b91908080601f016020809104026020016040519081016040528093929190818152602001838380828437600092019190915250929550610b7a945050505050565b005b3480156104b057600080fd5b506104b9610e78565b604080516001600160a01b039092168252519081900360200190f35b3480156104e157600080fd5b50610605600480360360408110156104f857600080fd5b810190602081018135600160201b81111561051257600080fd5b82018360208201111561052457600080fd5b803590602001918460208302840111600160201b8311171561054557600080fd5b9190808060200260200160405190810160405280939291908181526020018383602002808284376000920191909152509295949360208101935035915050600160201b81111561059457600080fd5b8201836020820111156105a657600080fd5b803590602001918460208302840111600160201b831117156105c757600080fd5b919080806020026020016040519081016040528093929190818152602001838360200280828437600092019190915250929550610e87945050505050565b60408051602080825283518183015283519192839290830191858101910280838360005b83811015610641578181015183820152602001610629565b505050509050019250505060405180910390f35b34801561066157600080fd5b50610172611005565b6101726004803603602081101561068057600080fd5b503561100b565b34801561069357600080fd5b506101726111a5565b3480156106a857600080fd5b506106b16111aa565b6040805192835260208301919091528051918290030190f35b3480156106d657600080fd5b506104a2600480360360408110156106ed57600080fd5b506001600160a01b0381351690602001351515611238565b34801561071157600080fd5b50610172611327565b34801561072657600080fd5b5061017261132c565b34801561073b57600080fd5b506101726004803603602081101561075257600080fd5b50356113dc565b34801561076557600080fd5b50610172611404565b34801561077a57600080fd5b5061017261140a565b34801561078f57600080fd5b506101b8600480360360408110156107a657600080fd5b506001600160a01b0381358116916020013516611410565b3480156107ca57600080fd5b506104a2600480360360a08110156107e157600080fd5b6001600160a01b03823581169260208101359091169160408201359160608101359181019060a081016080820135600160201b81111561082057600080fd5b82018360208201111561083257600080fd5b803590602001918460018302840111600160201b8311171561085357600080fd5b91908080601f01602080910402602001604051908101604052809392919081815260200183838082843760009201919091525092955061143e945050505050565b60006001600160a01b0383166108db5760405162461bcd60e51b815260040180806020018281038252602b81526020018061204a602b913960400191505060405180910390fd5b5060008181526001602090815260408083206001600160a01b03861684529091529020545b92915050565b6001600160e01b03191660009081526020819052604090205460ff1690565b6000600954600014610979576040805162461bcd60e51b815260206004820152601860248201527714995cdd5b1d08185b1c9958591e4818dbdb98db1d59195960421b604482015290519081900360640190fd5b600080600860009054906101000a90046001600160a01b03166001600160a01b031663feaf968c6040518163ffffffff1660e01b815260040160a06040518083038186803b1580156109ca57600080fd5b505afa1580156109de573d6000803e3d6000fd5b505050506040513d60a08110156109f457600080fd5b5060208101516060909101516007549193509150421115610a44576007548111158015610a22575060065482135b15610a3a57610a316002611676565b92505050610a60565b610a316001611676565b600654821315610a5857610a316002611676565b600954925050505b90565b60038054604080516020601f6002600019610100600188161502019095169490940493840181900481028201810190925282815260609390929091830182828015610aef5780601f10610ac457610100808354040283529160200191610aef565b820191906000526020600020905b815481529060010190602001808311610ad257829003601f168201915b50505050509050919050565b60046020527fabd6e7cb50984ff9c2f3e18a2660c3353dadf4e3291deeb275dae2cd1e44fe0554600260009081527f91da3fd0782e51c6b3986e9e672fd566868e71f3dbc2d6c2cd6fbb3e361af2a7549091610b5d919063ffffffff61160f16565b905090565b60046020526000908152604090205481565b60075481565b8151835114610bba5760405162461bcd60e51b81526004018080602001828103825260288152602001806121fd6028913960400191505060405180910390fd5b6001600160a01b038416610bff5760405162461bcd60e51b81526004018080602001828103825260258152602001806121096025913960400191505060405180910390fd5b610c0761170a565b6001600160a01b0316856001600160a01b03161480610c325750610c3285610c2d61170a565b611410565b610c6d5760405162461bcd60e51b815260040180806020018281038252603281526020018061212e6032913960400191505060405180910390fd5b6000610c7761170a565b9050610c87818787878787610e70565b60005b8451811015610d88576000858281518110610ca157fe5b602002602001015190506000858381518110610cb957fe5b60200260200101519050610d26816040518060600160405280602a8152602001612160602a91396001600086815260200190815260200160002060008d6001600160a01b03166001600160a01b031681526020019081526020016000205461170e9092919063ffffffff16565b60008381526001602090815260408083206001600160a01b038e811685529252808320939093558a1681522054610d5d908261160f565b60009283526001602081815260408086206001600160a01b038d168752909152909320555001610c8a565b50846001600160a01b0316866001600160a01b0316826001600160a01b03167f4a39dc06d4c0dbc64b70af90fd698a233a518aa5d07e595d983b8c0526c8f7fb8787604051808060200180602001838103835285818151815260200191508051906020019060200280838360005b83811015610e0e578181015183820152602001610df6565b50505050905001838103825284818151815260200191508051906020019060200280838360005b83811015610e4d578181015183820152602001610e35565b5050505090500194505050505060405180910390a4610e708187878787876117a5565b505050505050565b6008546001600160a01b031681565b60608151835114610ec95760405162461bcd60e51b81526004018080602001828103825260298152602001806121d46029913960400191505060405180910390fd5b6060835167ffffffffffffffff81118015610ee357600080fd5b50604051908082528060200260200182016040528015610f0d578160200160208202803683370190505b50905060005b8451811015610ffd5760006001600160a01b0316858281518110610f3357fe5b60200260200101516001600160a01b03161415610f815760405162461bcd60e51b81526004018080602001828103825260318152602001806120756031913960400191505060405180910390fd5b60016000858381518110610f9157fe5b602002602001015181526020019081526020016000206000868381518110610fb557fe5b60200260200101516001600160a01b03166001600160a01b0316815260200190815260200160002054828281518110610fea57fe5b6020908102919091010152600101610f13565b509392505050565b60095481565b6000600754421115611058576040805162461bcd60e51b8152602060048201526011602482015270151bdbc81b185d1948199bdc881d1a185d607a1b604482015290519081900360640190fd5b600954156110a8576040805162461bcd60e51b815260206004820152601860248201527714995cdd5b1d08185b1c9958591e4818dbdb98db1d59195960421b604482015290519081900360640190fd5b6005543410156110f5576040805162461bcd60e51b8152602060048201526013602482015272135a5b8818995d081b9bdd081c995858da1959606a1b604482015290519081900360640190fd5b6000611110611103846113dc565b349063ffffffff611a3616565b600084815260046020526040902054909150611132908263ffffffff61160f16565b600084815260046020908152604091829020929092558051338152918201859052348282015260608201839052517f7363e6581df4db69463222156be4a09656528b9f1302890fa4c0b60819b69fc69181900360800190a161090033848360405180602001604052806000815250611a80565b600181565b6000806000600860009054906101000a90046001600160a01b03166001600160a01b031663feaf968c6040518163ffffffff1660e01b815260040160a06040518083038186803b1580156111fd57600080fd5b505afa158015611211573d6000803e3d6000fd5b505050506040513d60a081101561122757600080fd5b506020015160065493509150509091565b816001600160a01b031661124a61170a565b6001600160a01b031614156112905760405162461bcd60e51b81526004018080602001828103825260298152602001806121ab6029913960400191505060405180910390fd5b806002600061129d61170a565b6001600160a01b03908116825260208083019390935260409182016000908120918716808252919093529120805460ff1916921515929092179091556112e161170a565b60408051841515815290516001600160a01b0392909216917f17307eab39ab6107e8899845ad3d59bd9653f200f220920489ca2b5937696c319181900360200190a35050565b600281565b600060095460001415611386576040805162461bcd60e51b815260206004820152601860248201527f526573756c74206e6f7420636f6e636c75646564207965740000000000000000604482015290519081900360640190fd5b600061139433600954610894565b604080513381526020810183905281519293507f106f923f993c2149d49b4255ff723acafa1f2d94393f561d3eda32ae348f7241929081900390910190a1610b5d3382611b8e565b60006109006113e9610afb565b6000848152600460205260409020549063ffffffff611a3616565b60055481565b60065481565b6001600160a01b03918216600090815260026020908152604080832093909416825291909152205460ff1690565b6001600160a01b0384166114835760405162461bcd60e51b81526004018080602001828103825260258152602001806121096025913960400191505060405180910390fd5b61148b61170a565b6001600160a01b0316856001600160a01b031614806114b157506114b185610c2d61170a565b6114ec5760405162461bcd60e51b81526004018080602001828103825260298152602001806120a66029913960400191505060405180910390fd5b60006114f661170a565b905061151681878761150788611c78565b61151088611c78565b87610e70565b611563836040518060600160405280602a8152602001612160602a913960008781526001602090815260408083206001600160a01b038d168452909152902054919063ffffffff61170e16565b60008581526001602090815260408083206001600160a01b038b8116855292528083209390935587168152205461159a908461160f565b60008581526001602090815260408083206001600160a01b03808b168086529184529382902094909455805188815291820187905280518a8416938616927fc3d58168c5ae7397731d063d5bbf3d657854427343f4c083240f7aacaa2d0f6292908290030190a4610e70818787878787611cbc565b600082820183811015611669576040805162461bcd60e51b815260206004820152601b60248201527f536166654d6174683a206164646974696f6e206f766572666c6f770000000000604482015290519081900360640190fd5b9392505050565b3b151590565b60006009546000146116ca576040805162461bcd60e51b815260206004820152601860248201527714995cdd5b1d08185b1c9958591e4818dbdb98db1d59195960421b604482015290519081900360640190fd5b60098290556040805183815290517f9f0070246003e1ad4d68ed84d7a89e0fb23b5acf3a546302cc3eabb9cf52ace29181900360200190a1505060095490565b3390565b6000818484111561179d5760405162461bcd60e51b81526004018080602001828103825283818151815260200191508051906020019080838360005b8381101561176257818101518382015260200161174a565b50505050905090810190601f16801561178f5780820380516001836020036101000a031916815260200191505b509250505060405180910390fd5b505050900390565b6117b7846001600160a01b0316611670565b15610e7057836001600160a01b031663bc197c8187878686866040518663ffffffff1660e01b815260040180866001600160a01b03166001600160a01b03168152602001856001600160a01b03166001600160a01b03168152602001806020018060200180602001848103845287818151815260200191508051906020019060200280838360005b8381101561185757818101518382015260200161183f565b50505050905001848103835286818151815260200191508051906020019060200280838360005b8381101561189657818101518382015260200161187e565b50505050905001848103825285818151815260200191508051906020019080838360005b838110156118d25781810151838201526020016118ba565b50505050905090810190601f1680156118ff5780820380516001836020036101000a031916815260200191505b5098505050505050505050602060405180830381600087803b15801561192457600080fd5b505af192505050801561194957506040513d602081101561194457600080fd5b505160015b6119de57611955611f45565b8061196057506119a7565b60405162461bcd60e51b815260206004820181815283516024840152835184939192839260440191908501908083836000831561176257818101518382015260200161174a565b60405162461bcd60e51b8152600401808060200182810382526034815260200180611fee6034913960400191505060405180910390fd5b6001600160e01b0319811663bc197c8160e01b14611a2d5760405162461bcd60e51b81526004018080602001828103825260288152602001806120226028913960400191505060405180910390fd5b50505050505050565b600061166982611a74611a5082600263ffffffff611e3f16565b611a6887670de0b6b3a764000063ffffffff611e8116565b9063ffffffff61160f16565b9063ffffffff611e3f16565b6001600160a01b038416611ac55760405162461bcd60e51b81526004018080602001828103825260218152602001806122256021913960400191505060405180910390fd5b6000611acf61170a565b9050611ae18160008761150788611c78565b60008481526001602090815260408083206001600160a01b0389168452909152902054611b14908463ffffffff61160f16565b60008581526001602090815260408083206001600160a01b03808b16808652918452828520959095558151898152928301889052815190948616927fc3d58168c5ae7397731d063d5bbf3d657854427343f4c083240f7aacaa2d0f6292908290030190a4611b8781600087878787611cbc565b5050505050565b80471015611be3576040805162461bcd60e51b815260206004820152601d60248201527f416464726573733a20696e73756666696369656e742062616c616e6365000000604482015290519081900360640190fd5b6040516000906001600160a01b0384169083908381818185875af1925050503d8060008114611c2e576040519150601f19603f3d011682016040523d82523d6000602084013e611c33565b606091505b5050905080611c735760405162461bcd60e51b815260040180806020018281038252603a8152602001806120cf603a913960400191505060405180910390fd5b505050565b604080516001808252818301909252606091829190602080830190803683370190505090508281600081518110611cab57fe5b602090810291909101015292915050565b611cce846001600160a01b0316611670565b15610e7057836001600160a01b031663f23a6e6187878686866040518663ffffffff1660e01b815260040180866001600160a01b03166001600160a01b03168152602001856001600160a01b03166001600160a01b0316815260200184815260200183815260200180602001828103825283818151815260200191508051906020019080838360005b83811015611d6f578181015183820152602001611d57565b50505050905090810190601f168015611d9c5780820380516001836020036101000a031916815260200191505b509650505050505050602060405180830381600087803b158015611dbf57600080fd5b505af1925050508015611de457506040513d6020811015611ddf57600080fd5b505160015b611df057611955611f45565b6001600160e01b0319811663f23a6e6160e01b14611a2d5760405162461bcd60e51b81526004018080602001828103825260288152602001806120226028913960400191505060405180910390fd5b600061166983836040518060400160405280601a81526020017f536166654d6174683a206469766973696f6e206279207a65726f000000000000815250611eda565b600082611e9057506000610900565b82820282848281611e9d57fe5b04146116695760405162461bcd60e51b815260040180806020018281038252602181526020018061218a6021913960400191505060405180910390fd5b60008183611f295760405162461bcd60e51b815260206004820181815283516024840152835190928392604490910191908501908083836000831561176257818101518382015260200161174a565b506000838581611f3557fe5b0495945050505050565b60e01c90565b600060443d1015611f5557610a60565b600481823e6308c379a0611f698251611f3f565b14611f7357610a60565b6040513d600319016004823e80513d67ffffffffffffffff8160248401118184111715611fa35750505050610a60565b82840191508151925080831115611fbd5750505050610a60565b503d83016020838301011115611fd557505050610a60565b601f91909101601f191681016020016040529150509056fe455243313135353a207472616e7366657220746f206e6f6e2045524331313535526563656976657220696d706c656d656e746572455243313135353a204552433131353552656365697665722072656a656374656420746f6b656e73455243313135353a2062616c616e636520717565727920666f7220746865207a65726f2061646472657373455243313135353a2062617463682062616c616e636520717565727920666f7220746865207a65726f2061646472657373455243313135353a2063616c6c6572206973206e6f74206f776e6572206e6f7220617070726f766564416464726573733a20756e61626c6520746f2073656e642076616c75652c20726563697069656e74206d61792068617665207265766572746564455243313135353a207472616e7366657220746f20746865207a65726f2061646472657373455243313135353a207472616e736665722063616c6c6572206973206e6f74206f776e6572206e6f7220617070726f766564455243313135353a20696e73756666696369656e742062616c616e636520666f72207472616e73666572536166654d6174683a206d756c7469706c69636174696f6e206f766572666c6f77455243313135353a2073657474696e6720617070726f76616c2073746174757320666f722073656c66455243313135353a206163636f756e747320616e6420696473206c656e677468206d69736d61746368455243313135353a2069647320616e6420616d6f756e7473206c656e677468206d69736d61746368455243313135353a206d696e7420746f20746865207a65726f2061646472657373a2646970667358221220b231fc5b196ff572e3a2bb540a9cefe2efd15b940f61a734c775031bfd7bcb9f64736f6c634300060a0033455243313135353a207472616e7366657220746f206e6f6e2045524331313535526563656976657220696d706c656d656e746572455243313135353a204552433131353552656365697665722072656a656374656420746f6b656e73455243313135353a206d696e7420746f20746865207a65726f2061646472657373",
  "immutableReferences": {},
  "source": "// SPDX-License-Identifier: MIT\npragma solidity ^0.6.10;\n\nimport \"@chainlink/contracts/src/v0.6/interfaces/AggregatorV3Interface.sol\";\nimport \"@openzeppelin/contracts/token/ERC1155/ERC1155.sol\";\nimport \"@openzeppelin/contracts/math/SafeMath.sol\";\nimport \"@openzeppelin/contracts/utils/Address.sol\";\nimport \"./utils/WadMath.sol\";\n\n/**\n * @dev HighOrLow\n * @author Alex Roan (@alexroan)\n */\ncontract HighOrLow is ERC1155 {\n    using WadMath for uint;\n    using Address for address;\n\n    // Results\n    uint constant public LOW = 1;\n    uint constant public HIGH = 2;\n\n    // Total supplies of each result token\n    mapping(uint => uint) public supplies;\n\n    // Constants\n    uint public minimumBet;\n    int public target;\n    uint public deadline;\n    address public feed;\n\n    // Actual result\n    uint public result;\n\n    modifier beforeDeadline() {\n        require(block.timestamp <= deadline, \"Too late for that\");\n        _;\n    }\n\n    modifier resultNotConcludedYet() {\n        require(result == 0, \"Result already concluded\");\n        _;\n    }\n\n    modifier resultConcluded() {\n        require(result != 0, \"Result not concluded yet\");\n        _;\n    }\n\n    event BetPlaced(address punter, uint outcome, uint ethAmount, uint tokensMinted);\n    event ResultConcluded(uint outcome);\n    event RewardClaimed(address punter, uint ethAmount);\n\n    /**\n     * @dev Contstruct\n     * @param name string\n     * @param priceTarget uint (must be in same format as oracle price)\n     * @param timeDeadline uint\n     * @param betMinimum uint (WAD format)\n     * @param feedAddress address\n     */\n    constructor(\n        string memory name,\n        int priceTarget,\n        uint timeDeadline,\n        uint betMinimum,\n        address feedAddress\n    ) public ERC1155(name) {\n        target = priceTarget;\n        deadline = timeDeadline;\n        minimumBet = betMinimum;\n        feed = feedAddress;\n\n        _mint(msg.sender, LOW, WadMath.WAD, \"\");\n        supplies[LOW] = WadMath.WAD;\n        _mint(msg.sender, HIGH, WadMath.WAD, \"\");\n        supplies[HIGH] = WadMath.WAD;\n    }\n\n    /**\n     * @dev Bet on an outcome occuring\n     * @param outcome uint\n     * @return uint amount of tokens\n     */\n    function bet(uint outcome) external payable beforeDeadline() resultNotConcludedYet() returns (uint) {\n        require(msg.value >= minimumBet, \"Min bet not reached\");\n        uint tokens = msg.value.wadDiv(priceOf(outcome));\n        supplies[outcome] = supplies[outcome].add(tokens);\n        emit BetPlaced(msg.sender, outcome, msg.value, tokens);\n        _mint(msg.sender, outcome, tokens, \"\");\n        return tokens;\n    }\n\n    /**\n     * @dev Get the target price, and the current price\n     * to see if it needs verifying. If the price is above the\n     * target, and the deadline has not yet been reached, someone\n     * should verify it!\n     * @return (int target, int price)\n     */\n    function checkResult() external view returns (int, int) {\n        (,int price,,,) = AggregatorV3Interface(feed).latestRoundData();\n        return (target, price);\n    }\n\n    /**\n     * @dev Verify the result to see if has concluded\n     * @return uint result\n     */\n    function verifyResult() public resultNotConcludedYet() returns (uint) {\n        (,int price,,uint feedTimestamp,) = AggregatorV3Interface(feed).latestRoundData();\n        // If current time is after deadline\n        // check if the price feed timestamp is before\n        // if it is, and the price is above the target\n        // then result = HIGH, otherwise LOW\n        if (block.timestamp > deadline) {\n            if (feedTimestamp <= deadline && price > target) {\n                return setResult(HIGH);\n            }\n            return setResult(LOW);\n        }\n        // If the current time is before the deadline\n        // just check if the price is higher than the target\n        else{\n            if (price > target) {\n                return setResult(HIGH);\n            }\n            // else nothing, still ongoing\n        }\n        return result;\n    }\n\n    /**\n     * @dev Set the result\n     * @param outcome uint\n     * @return result uint\n     */\n    function setResult(uint outcome) internal resultNotConcludedYet() returns (uint) {\n        result = outcome;\n        emit ResultConcluded(outcome);\n        return result;\n    }\n\n    /**\n     * @dev Claim your reward upon the result concluding\n     * @return uint amount\n     */\n    function claimReward() external resultConcluded() returns (uint) {\n        uint amount = balanceOf(msg.sender, result);\n        RewardClaimed(msg.sender, amount);\n        Address.sendValue(msg.sender, amount);\n        return amount;\n    }\n\n    /**\n     * @dev Get the current price of an outcome\n     * @param outcome uint\n     * @return uint price\n     */\n    function priceOf(uint outcome) public view returns (uint) {\n        return supplies[outcome].wadDiv(totalSupply());\n    }\n\n    /**\n     * @dev Total supply of all results\n     * @return uint total supply\n     */\n    function totalSupply() public view returns (uint) {\n        return supplies[HIGH].add(supplies[LOW]);\n    }\n}",
  "sourcePath": "/Users/alexroan/Documents/Projects/Blockchain/DApps/winlose/contracts/HighOrLow.sol",
  "compiler": {
    "name": "solc",
    "version": "0.6.10+commit.00c0fcaf.Emscripten.clang"
  },
  "schemaVersion": "3.2.5",
  "updatedAt": "2020-10-24T22:42:14.332Z",
  "networkType": "ethereum",
  "devdoc": {
    "author": "Alex Roan (@alexroan)",
    "details": "HighOrLow",
    "methods": {
      "balanceOf(address,uint256)": {
        "details": "See {IERC1155-balanceOf}. Requirements: - `account` cannot be the zero address."
      },
      "balanceOfBatch(address[],uint256[])": {
        "details": "See {IERC1155-balanceOfBatch}. Requirements: - `accounts` and `ids` must have the same length."
      },
      "bet(uint256)": {
        "details": "Bet on an outcome occuring",
        "params": {
          "outcome": "uint"
        },
        "returns": {
          "_0": "uint amount of tokens"
        }
      },
      "checkResult()": {
        "details": "Get the target price, and the current price to see if it needs verifying. If the price is above the target, and the deadline has not yet been reached, someone should verify it!",
        "returns": {
          "_0": "(int target, int price)"
        }
      },
      "claimReward()": {
        "details": "Claim your reward upon the result concluding",
        "returns": {
          "_0": "uint amount"
        }
      },
      "constructor": {
        "details": "Contstruct",
        "params": {
          "betMinimum": "uint (WAD format)",
          "feedAddress": "address",
          "name": "string",
          "priceTarget": "uint (must be in same format as oracle price)",
          "timeDeadline": "uint"
        }
      },
      "isApprovedForAll(address,address)": {
        "details": "See {IERC1155-isApprovedForAll}."
      },
      "priceOf(uint256)": {
        "details": "Get the current price of an outcome",
        "params": {
          "outcome": "uint"
        },
        "returns": {
          "_0": "uint price"
        }
      },
      "safeBatchTransferFrom(address,address,uint256[],uint256[],bytes)": {
        "details": "See {IERC1155-safeBatchTransferFrom}."
      },
      "safeTransferFrom(address,address,uint256,uint256,bytes)": {
        "details": "See {IERC1155-safeTransferFrom}."
      },
      "setApprovalForAll(address,bool)": {
        "details": "See {IERC1155-setApprovalForAll}."
      },
      "supportsInterface(bytes4)": {
        "details": "See {IERC165-supportsInterface}. Time complexity O(1), guaranteed to always use less than 30 000 gas."
      },
      "totalSupply()": {
        "details": "Total supply of all results",
        "returns": {
          "_0": "uint total supply"
        }
      },
      "uri(uint256)": {
        "details": "See {IERC1155MetadataURI-uri}. This implementation returns the same URI for *all* token types. It relies on the token type ID substitution mechanism https://eips.ethereum.org/EIPS/eip-1155#metadata[defined in the EIP]. Clients calling this function must replace the `\\{id\\}` substring with the actual token type ID."
      },
      "verifyResult()": {
        "details": "Verify the result to see if has concluded",
        "returns": {
          "_0": "uint result"
        }
      }
    }
  },
  "userdoc": {
    "methods": {}
  }
}