{
  "contractName": "WadMath",
  "abi": [
    {
      "inputs": [],
      "name": "WAD",
      "outputs": [
        {
          "internalType": "uint256",
          "name": "",
          "type": "uint256"
        }
      ],
      "stateMutability": "view",
      "type": "function"
    }
  ],
  "bytecode": "0x6092610024600b82828239805160001a607314601757fe5b30600052607381538281f3fe730000000000000000000000000000000000000000301460806040526004361060335760003560e01c80636a146024146038575b600080fd5b603e6050565b60408051918252519081900360200190f35b670de0b6b3a76400008156fea264697066735822122005d0a82db1b0183b110c7b884920b98de191639c5485a6a3b518ea42bf04608d64736f6c634300060a0033",
  "immutableReferences": {},
  "source": "// SPDX-License-Identifier: MIT\npragma solidity ^0.6.10;\n\nimport \"@openzeppelin/contracts/math/SafeMath.sol\";\n\nlibrary WadMath {\n    using SafeMath for uint;\n\n    uint public constant WAD = 10 ** 18;\n\n    uint private constant WAD_OVER_10 = WAD / 10;\n    uint private constant WAD_OVER_20 = WAD / 20;\n    uint private constant HALF_TO_THE_ONE_TENTH = 933032991536807416;\n\n    //rounds to zero if x*y < WAD / 2\n    function wadMul(uint x, uint y) internal pure returns (uint) {\n        return ((x.mul(y)).add(WAD.div(2))).div(WAD);\n    }\n\n    //rounds to zero if x/y < WAD / 2\n    function wadDiv(uint x, uint y) internal pure returns (uint) {\n        return ((x.mul(WAD)).add(y.div(2))).div(y);\n    }\n}\n",
  "sourcePath": "/Users/alexroan/Documents/Projects/Blockchain/DApps/winlose/contracts/utils/WadMath.sol",
  "compiler": {
    "name": "solc",
    "version": "0.6.10+commit.00c0fcaf.Emscripten.clang"
  },
  "schemaVersion": "3.2.5",
  "updatedAt": "2020-10-24T21:45:11.824Z",
  "devdoc": {
    "methods": {}
  },
  "userdoc": {
    "methods": {}
  }
}